:100000000C94FC000C9424010C9424010C94240105
:100010000C9424010C9424010C9424010C942401CC
:100020000C9424010C9424010C9408040C942401D5
:100030000C9424010C9424010C9424010C942401AC
:100040000C9424010C9424010C9424010C9424019C
:100050000C9424010C9424010C9424010C94270387
:100060000C9424010C94E9020C94C3020C94240116
:100070000C9424010C9424010C9424010C9424016C
:100080000C9424010C9424010C9424010C9424015C
:100090000C9424010C9424010C9424010C9424014C
:1000A0000C9424010C9424010C94240106052D05C4
:1000B000FA062D05FA0675059805FA06C106D40656
:1000C00000000000250028002B002E003100000059
:1000D0000000240027002A002D003000040404043E
:1000E00004030405020202020403020202020606DD
:1000F00006060606040402020204040408020110B3
:100100004080401020408040800802040180402050
:100110001002011080102040402005010905A101B6
:1001200015002501350045017501951005091901D6
:100130002910810205012507463B017504950165DB
:10014000140939814265009501810126FF0046FFAF
:100150000009300931093209357508950481020614
:1001600000FF0920950181020A212695089102C00D
:100170000902290001010080FA09040000020300BD
:100180000000092111010001225600070502034069
:100190000010070581034000041201000200000066
:1001A000400D0F9200000101020001240350004F96
:1001B000004B004B0045004E00200043004F004E16
:1001C00000540052004F004C004C0045005200000B
:1001D000001C0348004F0052004900200043004F1C
:1001E000002E002C004C00540044002E000000049F
:1001F000030904000F21092111241FBECFEFDAE00B
:10020000DEBFCDBF22E0A6E3B1E001C01D92A33B5B
:10021000B207E1F711E0A0E0B1E0E4E9F7E402C0E1
:1002200005900D92A633B107D9F710E0CBEFD0E0DF
:1002300004C02197FE010E94A221CA3FD107C9F73D
:100240000E94DF150C94BD230C9400000895CF92FA
:10025000DF92EF92FF920F931F93CF93DF936C0186
:100260007A018B01C0E0D0E0CE15DF0589F0D8011E
:100270006D918D01D601ED91FC910190F081E02D01
:10028000C6010995892B11F47E0102C02196ECCF9D
:10029000C701DF91CF911F910F91FF90EF90DF90F9
:1002A000CF900895FC01918D828D981761F0828D19
:1002B000DF01A80FB11D5D968C91928D9F5F9F739A
:1002C000928F90E008958FEF9FEF0895FC01918D3C
:1002D000828D981731F0828DE80FF11D858D90E0A9
:1002E00008958FEF9FEF0895FC01918D228D892F46
:1002F00090E0805C9F4F821B91098F73992708952E
:1003000084E591E00E94740121E0892B09F420E04A
:10031000822F0895FC01848DDF01A80FB11DA35A1F
:10032000BF4F2C91848D90E001968F739927848F15
:10033000A689B7892C93A089B1898C9180648C930C
:10034000938D848D981306C00288F389E02D8081F7
:100350008F7D80830895EF92FF920F931F93CF9329
:10036000DF93EC0181E0888F9B8D8C8D981305C005
:10037000E889F989808185FD24C0F62E0B8D10E077
:100380000F5F1F4F0F731127E02E8C8DE8120CC0EA
:100390000FB607FCFACFE889F989808185FFF5CF90
:1003A000CE010E948A01F1CF8B8DFE01E80FF11D75
:1003B000E35AFF4FF0820B8FEA89FB8980818062CC
:1003C00007C0EE89FF896083E889F98980818064AC
:1003D000808381E090E0DF91CF911F910F91FF909A
:1003E000EF900895CF93DF93EC01888D8823C9F0B7
:1003F000EA89FB89808185FD05C0A889B9898C912E
:1004000086FD0FC00FB607FCF5CF808185FFF2CFC8
:10041000A889B9898C9185FFEDCFCE010E948A0110
:10042000E7CFDF91CF91089580E090E0892B29F00C
:100430000E94800181110C94000008952091E40035
:100440003091E50095E64091EC00842F817040FFEB
:1004500022C08091E80080FD1CC080913901882372
:1004600091F0853091F08091EB0085FD10C04091B6
:10047000E4005091E5004217530729F39A01915087
:1004800011F784E0089582E0089583E0089581E003
:10049000089580E008954091E80042FFDECF08957E
:1004A00080913B0187FF11C08091E80082FD05C06B
:1004B000809139018111F8CF11C08091E8008B77CC
:1004C0000BC080913901882349F08091E80080FFBA
:1004D000F8CF8091E8008E778093E80008950E941D
:1004E0009F230F931F93CF93DF93EC018881998112
:1004F000009729F02A813B812617370788F48B0162
:100500006F5F7F4F0E94D522009761F099838883A7
:100510001B830A832C813D81232B11F4FC01108263
:1005200081E001C080E0DF91CF911F910F9108958C
:10053000EF92FF920F931F93CF93DF93EC017B0118
:100540008A01BA010E9471022881398181110DC08E
:100550002115310519F0C9010E943D221982188226
:100560001D821C821B821A8206C01D830C83B70168
:10057000C9010E94B623CE01DF91CF911F910F9147
:10058000FF90EF9008951F920F920FB60F921124D3
:100590002F933F934F935F936F937F938F939F938B
:1005A000AF93BF93EF93FF9384E591E00E948A019C
:1005B000FF91EF91BF91AF919F918F917F916F913B
:1005C0005F914F913F912F910F900FBE0F901F9011
:1005D00018951F920F920FB60F9211242F938F939D
:1005E0009F93EF93FF93E0916401F0916501808107
:1005F000E0916A01F0916B0182FD12C090818091BF
:100600006D018F5F8F7320916E01821751F0E09121
:100610006D01F0E0EC5AFE4F958F80936D0101C0A3
:100620008081FF91EF919F918F912F910F900FBE3D
:100630000F901F9018952FB7F89460914801709112
:10064000490180914A0190914B012FBF08951F925B
:100650000F920FB60F9211242F933F938F939F9376
:10066000AF93BF938091480190914901A0914A01B5
:10067000B0914B013091470123E0230F2D3720F437
:100680000196A11DB11D05C026E8230F0296A11DEC
:10069000B11D209347018093480190934901A09395
:1006A0004A01B0934B018091430190914401A09184
:1006B0004501B09146010196A11DB11D80934301F2
:1006C00090934401A0934501B0934601BF91AF912F
:1006D0009F918F913F912F910F900FBE0F901F9080
:1006E0001895CF93DF93EC011982188220E830E04F
:1006F0003B832A838FEF90E09D838C831F821E8231
:10070000998788879B878A871D861C8680E490E06E
:100710009F878E8740EC50E0598B488B5B8B4A8BD0
:100720009D8B8C8B41E050E05F8B4E8B42E050E024
:10073000598F488F44E050E05B8F4A8F48E050E08B
:100740005D8F4C8F40E150E05F8F4E8F40E250E074
:1007500059A348A39BA38AA33DA32CA380E091E0C7
:100760009FA38EA380E092E099A788A780E094E001
:100770009BA78AA780E098E09DA78CA780E090E1E6
:100780009FA78EA780E090E299AB88AB1AAA1BAA1C
:100790001CAA1DAA0E941B036EAB7FAB88AF99AF4A
:1007A000DF91CF910895982F973058F59093E900F5
:1007B000981739F07091EC002091ED005091F00005
:1007C00003C0242F762F50E021FF19C03091EB0099
:1007D0003E7F3093EB003091ED003D7F3093ED0094
:1007E0003091EB0031603093EB007093EC0020937C
:1007F000ED005093F0002091EE0027FF07C09F5FAF
:10080000D3CF8F708093E90081E0089580E0089550
:100810001F920F920FB60F9211242F933F934F9375
:100820005F936F937F938F939F93AF93BF93EF9358
:10083000FF938091E10082FF09C08091E20082FF76
:1008400005C08091E1008B7F8093E1008091DA0008
:1008500080FF1BC08091D80080FF17C08091DA0014
:100860008E7F8093DA008091D90080FF0BC080E1F9
:1008700089BD82E189BD09B400FEFDCF81E080938E
:10088000390103C019BC109239018091E10080FF49
:1008900017C08091E20080FF13C08091E2008E7F3C
:1008A0008093E2008091E20080618093E200809179
:1008B000D80080628093D80019BC85E0809339010C
:1008C0008091E10084FF2EC08091E20084FF2AC065
:1008D00080E189BD82E189BD09B400FEFDCF809130
:1008E000D8008F7D8093D8008091E1008F7E809327
:1008F000E1008091E2008F7E8093E2008091E2002F
:1009000081608093E20080913801882311F084E0B7
:1009100007C08091E30087FD02C081E001C083E051
:10092000809339018091E10083FF22C08091E20031
:1009300083FF1EC08091E100877F8093E10082E009
:1009400080933901109238018091E1008E7F80936D
:10095000E1008091E2008E7F8093E2008091E200CE
:1009600080618093E20042E360E080E00E94D30374
:10097000FF91EF91BF91AF919F918F917F916F9177
:100980005F914F913F912F910F900FBE0F901F904D
:1009900018950F931F93CF93DF93CDB7DEB7AA9728
:1009A0000FB6F894DEBF0FBECDBF8091390188230A
:1009B00009F43CC21091E9001F709091EC00892F5E
:1009C000817090FD80E8182B1092E9008091E8007A
:1009D00083FF1EC2EBE3F1E088E08E0F9091F100FF
:1009E00091938E13FBCF8091E80083FF03C2809127
:1009F0003B0190913C01492F50E04A30510508F0ED
:100A0000F9C1FA01EA5AFF4F0C94A221803821F073
:100A1000823809F0EFC108C080913601909137010A
:100A2000992389F082600FC080913F018F708730D9
:100A300008F0E0C18093E9008091EB0085FB8827F6
:100A400080F91092E9009091E800977F9093E80078
:100A50008093F1001092F1009FC1282F2D7F09F0A3
:100A6000C9C1882319F0823061F0C4C180913D0171
:100A7000813009F0BFC1933009F080E080933701E5
:100A80002EC080913D0181112AC080913F018F705D
:100A90002FEF280F263008F0ADC18093E900209198
:100AA000EB0020FF1CC0933021F48091EB008062AA
:100AB00014C09091EB0090619093EB0021E030E046
:100AC000A90102C0440F551F8A95E2F74093EA003E
:100AD0001092EA008091EB0088608093EB00109206
:100AE000E9008091E800877F5AC1811183C100919C
:100AF0003D010F778091E3008078802B8093E300A5
:100B00008091E800877F8093E8000E9450028091E6
:100B1000E80080FFFCCF8091E30080688093E300D1
:100B2000011102C082E001C083E08093390162C1FB
:100B30008058823008F05EC180913D0190913E0165
:100B40008C3D53E0950709F080C083E08A838AE2F8
:100B500089834FB7F894DE01139620E03EE051E21E
:100B6000E32FF0E050935700E49120FF03C0E2959B
:100B7000EF703F5FEF708E2F90E0EA3010F0C79675
:100B800001C0C0968D939D932F5F243149F74FBFCD
:100B90008091E800877F8093E800209141013091A7
:100BA00042012A32310510F02AE230E040E0BE0175
:100BB0006F5F7F4F21153105A1F1809139018823A5
:100BC00009F4D9C0853009F4D6C08091E80083FDCE
:100BD000D2C08091E80082FD33C08091E80080FFA0
:100BE000E9CF4091F3008091F20090E0942BFB015B
:100BF000BF012115310551F08034910538F4419140
:100C00004093F100215031090196F2CF41E0803448
:100C1000910509F040E08091E8008E778093E8002C
:100C2000C9CF4111CACF0CC080913901882309F482
:100C3000A2C0853009F49FC08091E80083FD9BC06D
:100C40008091E80082FFF0CF96C0292F3327233010
:100C50003105D9F06CF42130310509F4DDC02230C2
:100C6000310509F0C7C089E290E0E0E7F1E031C06A
:100C70002132310509F4D5C02232310509F0BAC05C
:100C800086E590E0EAE1F1E024C099278130910502
:100C900071F08230910599F0892B09F0ABC0EFEE2D
:100CA000F1E0E4918E2F90E0EFEEF1E00FC0E1ED86
:100CB000F1E0E4918E2F90E0E1EDF1E007C0EBEA86
:100CC000F1E0E4918E2F90E0EBEAF1E0009709F477
:100CD00091C02091E800277F2093E80020914101F6
:100CE000309142012817390708F4C90140E0009704
:100CF00089F120913901222309F43DC02530D9F131
:100D00002091E80023FD37C02091E80022FD2FC08C
:100D10002091E80020FFEBCF4091F3002091F200FA
:100D200030E0342B009759F02034310540F44491E1
:100D30004093F100319601972F5F3F4FF3CF41E091
:100D40002034310509F040E02091E8002E7720930F
:100D5000E800CDCF4111CDCF0AC080913901882361
:100D600051F0853041F08091E80083FD04C080910E
:100D7000E80082FFF2CF8091E8008B778093E80053
:100D800039C08038B9F58091E800877F8093E8000A
:100D9000809138018093F1008091E8008E778093F4
:100DA000E8000E94500226C0811124C090913D01AC
:100DB000923000F58091E800877F8093E80090935F
:100DC00038010E94500280913801811106C0809143
:100DD000E30087FD02C081E001C084E08093390117
:100DE00042E360EC82E00E94D30342E361EC81E0E5
:100DF0000E94D3038091E80083FF0AC08091E8003D
:100E0000877F8093E8008091EB0080628093EB0005
:100E10001F701093E9000AC082E190E0E9E9F1E077
:100E200058CF89E090E0E2E8F1E053CFAA960FB600
:100E3000F894DEBF0FBECDBFDF91CF911F910F9110
:100E40000895EF92FF920F931F93CF93DF93CDB747
:100E5000DEB727970FB6F894DEBF0FBECDBF8091E7
:100E60003901843009F06CC082E08093E900809100
:100E7000E80082FF2CC08091E80085FF23C00E941B
:100E80001E0281111FC007E010E0CE0101967C0117
:100E90008091E80085FD0CC08091E8008B778093FD
:100EA000E8000E94C9040E941E02882341F00AC083
:100EB0008091F100D7018D937D0101501109011539
:100EC000110531F78091E8008B778093E80081E08D
:100ED0008093E9008091E80080FF32C00E941E02EA
:100EE000882369F08091E8008E778093E80088E09D
:100EF000ECE4F1E0DF011D928A95E9F721C008E0FA
:100F000010E08CE4E82E81E0F82E8091E80085FD69
:100F10000CC08091E8008E778093E8000E94C9049D
:100F20000E941E02882341F0DDCFF70181917F01ED
:100F30008093F100015011090115110531F7D2CF4D
:100F400027960FB6F894DEBF0FBECDBFDF91CF91CD
:100F50001F910F91FF90EF9008954F925F927F92B3
:100F60008F929F92AF92BF92CF92DF92EF92FF92B9
:100F70000F931F93CF93DF931F92CDB7DEB72C0152
:100F8000762E4801590149830E941B03F20166AB8A
:100F900077AB80AF91AF02A913A924A935A9DC01D1
:100FA000CB01801B910BA20BB30B498188159905CE
:100FB000AA05BB0530F470924F0140935001828125
:100FC0000FC08C0C9D1CAE1CBF1C88159905AA0572
:100FD000BB0580F4F201828180934F018093500120
:100FE00080935101809352010E9421070E94C904FD
:100FF00081E011C00E941B03F20162AB73AB84ABB2
:1010000095AB828180934F01809350018093510171
:101010008093520180E00F90DF91CF911F910F914B
:10102000FF90EF90DF90CF90BF90AF909F908F9008
:101030007F905F904F9008952F923F924F925F92D2
:101040006F927F928F929F92AF92BF92CF92DF92D8
:10105000EF92FF920F931F93CF93DF9300D000D0B6
:10106000CDB7DEB71C016B014701580129833A83D4
:101070004B835C830E941B03F10166AB77AB80AFAF
:1010800091AF42A853A864A875A8DC01CB018419CC
:101090009509A609B70929813A814B815C8182179C
:1010A0009307A407B50758F480914C0190914D0126
:1010B000C82AD92AD0924D01C0924C010CC0890196
:1010C0009A01080D191D2A1D3B1D80179107A207C3
:1010D000B30780F4F101828180934F018093500126
:1010E00080935101809352010E9421070E94C904FC
:1010F00081E011C00E941B03F10162AB73AB84ABB2
:1011000095AB828180934F01809350018093510170
:101110008093520180E00F900F900F900F90DF911D
:10112000CF911F910F91FF90EF90DF90CF90BF90E4
:10113000AF909F908F907F906F905F904F903F9077
:101140002F900895CF92DF92EF92FF920F931F930B
:10115000CF93DF9360911F027091200218EEE12E71
:1011600013E0F12E00E010E028EC30E040E050E029
:1011700081EF91E00E941C088111ECCF4091F901B0
:101180005091FA016091F3017091F401B8ECCB2E0B
:10119000D12CE12CF12C08EC10E020E030E081EFC4
:1011A00091E00E94AD078111E9CFC4E0D0E0409109
:1011B000F3015091F4016091FB017091FC01A4E6F0
:1011C000CA2ED12CE12CF12C08EC10E020E030E00C
:1011D00081EF91E00E94AD078111E9CF219739F7A6
:1011E00060910B0270910C0214EFE12EFF24F39436
:1011F00000E010E028EC30E040E050E081EF91E0CA
:101200000E941C088111ECCF4091F9015091FA0124
:101210006091F3017091F401E4E6CE2ED12CE12C23
:10122000F12C00ED17E020E030E081EF91E00E942A
:10123000AD078111E9CF60910B0270910C0214EFA0
:10124000E12EFF24F39400E010E028EC30E040E0D1
:1012500050E081EF91E00E941C088111ECCFC2E0C8
:10126000D0E04091F9015091FA016091F301709141
:10127000F40134E6C32ED12CE12CF12C00E911E06D
:1012800020E030E081EF91E00E94AD078111E9CFCD
:10129000219719F0C1E0D0E0E4CF60910B0270918A
:1012A0000C021CE2E12EFF24F39400E010E028EC95
:1012B00030E040E050E081EF91E00E941C08811195
:1012C000ECCF4091F9015091FA016091F3017091D6
:1012D000F40194E6C92ED12CE12CF12C08EE13E098
:1012E00020E030E081EF91E00E94AD078111E9CF6D
:1012F00060910B0270910C0210E9E12EFF24F3942F
:1013000000E010E028EC30E040E050E081EF91E0B8
:101310000E941C088111ECCFDF91CF911F910F919A
:10132000FF90EF90DF90CF900895CF92DF92EF92F1
:10133000FF920F931F93CF93DF93EC010E941B0347
:1013400060936702709368028093690290936A02C7
:10135000009163021091640220916502309166024F
:10136000DC01CB01801B910BA20BB30B883E934099
:10137000A105B105C8F40E941B0360936702709336
:1013800068028093690290936A028091330280938D
:101390004F018093500180935101809352010E942C
:1013A00021070E94C9040AC00E941B0360936302C4
:1013B0007093640280936502909366020E946A159E
:1013C00081E090E00E941C1440913302509134025D
:1013D00060913D0270913E0214EFC12EDD24D39442
:1013E000E12CF12C00E213E020E030E081E392E018
:1013F0000E94AD078111E8CFC1158AE0D80729F511
:101400008CE290E00E94CD124091390250913A0254
:101410006091330270913402D4E6CD2ED12CE12CB0
:10142000F12C08EE13E020E030E081E392E00E942E
:10143000AD078111E9CFDF91CF911F910F91FF90FF
:10144000EF90DF90CF900C949B13C1152FE0D20743
:10145000E1F483E490E00E94CD1240913902509172
:101460003A026091330270913402C4E6CC2ED12C42
:10147000E12CF12C08EE13E020E030E081E392E073
:101480000E94AD078111E9CFD6CFC11584E1D807FD
:1014900041F0C11529E1D20709F085C08AE390E047
:1014A00002C08CE290E00E94CD120E946A1582E098
:1014B00090E00E941C1440913302509134026091DC
:1014C0003D0270913E02B4EFCB2EDD24D394E12C8B
:1014D000F12C00E213E020E030E081E392E00E9492
:1014E000AD078111E8CFC11584E1D80719F483E273
:1014F00090E002C080E390E00E94CD12409139025A
:1015000050913A026091330270913402A4E6CA2EDF
:10151000D12CE12CF12C08EE13E020E030E081E347
:1015200092E00E94AD078111E9CF0E949B130E94B7
:101530006A15409133025091340260913D027091DE
:101540003E02F4EFCF2EDD24D394E12CF12C00E207
:1015500013E020E030E081E392E00E94AD078111CA
:10156000E8CFC115D44119F482E390E002C084E4CD
:1015700090E00E94CD124091390250913A02609160
:10158000330270913402E4E6CE2ED12CE12CF12C02
:1015900008EE13E020E030E081E392E00E94AD0726
:1015A0008111E9CF48CFC1158EE1D80709F0E5C018
:1015B0008CE290E00E94CD120E946A1582E090E0D9
:1015C0000E941C14409133025091340260913D02FC
:1015D00070913E0234EFC32EDD24D394E12CF12C24
:1015E00000E213E020E030E081E392E00E94AD07EA
:1015F0008111E8CF8CE290E00E94CD124091390237
:1016000050913A02609133027091340224E6C22E66
:10161000D12CE12CF12C08EE13E020E030E081E346
:1016200092E00E94AD078111E9CF0E946A1583E024
:1016300090E00E941C14409133025091340260915A
:101640003D0270913E0294EFC92EDD24D394E12C2B
:10165000F12C00E213E020E030E081E392E00E9410
:10166000AD078111E8CF8AE290E00E94CD1240914F
:10167000390250913A02609133027091340284E64B
:10168000C82ED12CE12CF12C08EE13E020E030E044
:1016900081E392E00E94AD078111E9CF0E949B1384
:1016A0000E946A15409133025091340260913D02CC
:1016B00070913E0204EFC02EDD24D394E12CF12C76
:1016C00000E213E020E030E081E392E00E94AD0709
:1016D0008111E8CF8CE290E00E94CD124091390256
:1016E00050913A02609133027091340214E6C12E97
:1016F000D12CE12CF12C08EE13E020E030E081E366
:1017000092E00E94AD078111E9CF0E949B130E94D5
:101710006A15409133025091340260913D027091FC
:101720003E02D4EFCD2EDD24D394E12CF12C00E247
:1017300013E020E030E081E392E00E94AD078111E8
:10174000E8CF82E390E00E94CD124091390250919F
:101750003A026091330270913402C4E6CC2ED12C4F
:10176000E12CF12C08EE13E020E030E081E392E080
:101770000E94AD078111E9CF5ECEC11523E2D207E9
:1017800009F0F0C08CE290E00E94CD120E946A1530
:1017900082E090E00E941C14409133025091340288
:1017A00060913D0270913E02B4EFCB2EDD24D394C4
:1017B000E12CF12C00E213E020E030E081E392E044
:1017C0000E94AD078111E8CF8CE290E00E94CD121B
:1017D0004091390250913A02609133027091340283
:1017E000A4E6CA2ED12CE12CF12C08EE13E020E067
:1017F00030E081E392E00E94AD078111E9CF0E94C1
:101800006A1583E090E00E941C14409133025091CD
:10181000340260913D0270913E02F4EFCF2EDD2440
:10182000D394E12CF12C00E213E020E030E081E3DE
:1018300092E00E94AD078111E8CF82E390E00E9420
:10184000CD124091390250913A0260913302709169
:101850003402E4E6CE2ED12CE12CF12C08EE13E07C
:1018600020E030E081E392E00E94AD078111E9CFF2
:101870000E949B130E946A154091330250913402DA
:1018800060913D0270913E0234EFC32EDD24D3946B
:10189000E12CF12C00E213E020E030E081E392E063
:1018A0000E94AD078111E8CF84E390E00E94CD1241
:1018B0004091390250913A026091330270913402A2
:1018C00024E6C22ED12CE12CF12C08EE13E020E00E
:1018D00030E081E392E00E94AD078111E9CF0E94E0
:1018E0009B130E946A15409133025091340260911B
:1018F0003D0270913E0294EFC92EDD24D394E12C79
:10190000F12C00E213E020E030E081E392E00E945D
:10191000AD078111E8CF80E390E00E94CD124091A5
:10192000390250913A02609133027091340284E698
:10193000C82ED12CE12CF12C08EE13E020E030E091
:1019400081E392E00E94AD078111E9CF0E949B13D1
:10195000DF91CF911F910F91FF90EF90DF90CF908B
:101960000C946A15C115D84209F055C18CE290E07B
:101970000E94CD120E946A1582E090E00E941C1421
:10198000409133025091340260913D0270913E02C9
:1019900004EFC02EDD24D394E12CF12C00E213E0FF
:1019A00020E030E081E392E00E94AD078111E8CFB2
:1019B0008CE290E00E94CD124091390250913A029F
:1019C000609133027091340214E6C12ED12CE12CC7
:1019D000F12C08EE13E020E030E081E392E00E9479
:1019E000AD078111E9CF0E946A1583E090E00E9463
:1019F0001C14409133025091340260913D02709169
:101A00003E02D4EFCD2EDD24D394E12CF12C00E264
:101A100013E020E030E081E392E00E94AD07811105
:101A2000E8CF8CE290E00E94CD12409139025091B3
:101A30003A026091330270913402C4E6CC2ED12C6C
:101A4000E12CF12C08EE13E020E030E081E392E09D
:101A50000E94AD078111E9CF0E946A1584E090E0F1
:101A60000E941C14409133025091340260913D0257
:101A700070913E02B4EFCB2EDD24D394E12CF12CF7
:101A800000E213E020E030E081E392E00E94AD0745
:101A90008111E8CF8EE190E00E94CD124091390291
:101AA00050913A026091330270913402A4E6CA2E3A
:101AB000D12CE12CF12C08EE13E020E030E081E3A2
:101AC00092E00E94AD078111E9CF0E949B130E9412
:101AD0006A15409133025091340260913D02709139
:101AE0003E02F4EFCF2EDD24D394E12CF12C00E262
:101AF00013E020E030E081E392E00E94AD07811125
:101B0000E8CF84E390E00E94CD12409139025091D9
:101B10003A026091330270913402E4E6CE2ED12C69
:101B2000E12CF12C08EE13E020E030E081E392E0BC
:101B30000E94AD078111E9CF0E949B130E946A1594
:101B4000409133025091340260913D0270913E0207
:101B500034EFC32EDD24D394E12CF12C00E213E00A
:101B600020E030E081E392E00E94AD078111E8CFF0
:101B700080E390E00E94CD124091390250913A02E8
:101B8000609133027091340224E6C22ED12CE12CF4
:101B9000F12C08EE13E020E030E081E392E00E94B7
:101BA000AD078111E9CF0E949B130E946A154091F5
:101BB00033025091340260913D0270913E0294EFE5
:101BC000C92EDD24D394E12CF12C00E213E020E0B7
:101BD00030E081E392E00E94AD078111E8CF80E31D
:101BE00090E00E94CD124091390250913A026091EA
:101BF00033027091340284E6C82ED12CE12CF12CF2
:101C000008EE13E020E030E081E392E00E94AD07AF
:101C10008111E9CF9BCEDF91CF911F910F91FF9062
:101C2000EF90DF90CF900895CF92DF92EF92FF92E6
:101C30000F931F930E94A2084091F3015091F40169
:101C40006091FB017091FC01F0E9CF2EDD24D3946B
:101C5000E12CF12C08EC10E020E030E081EF91E085
:101C60000E94AD078111E8CF4091F7015091F80132
:101C70006091F3017091F401E4E6CE2ED12CE12CB9
:101C8000F12C08EC10E020E030E081EF91E00E94C0
:101C9000AD078111E9CF4091F3015091F4016091BA
:101CA000FB017091FC0138ECC32ED12CE12CF12CFE
:101CB00008EE13E020E030E081EF91E00E94AD07F4
:101CC0008111E9CF60910B0270910C0214EFE12EAB
:101CD000FF24F39400E010E028EC30E040E050E016
:101CE00081EF91E00E941C088111ECCF60911F02EE
:101CF0007091200218EEE12E13E0F12E00E010E0CA
:101D000028EC30E040E050E081EF91E00E941C08B8
:101D10008111ECCF60910B0270910C0210EDE12E5D
:101D200017E0F12E00E010E028EC30E040E050E059
:101D300081EF91E00E941C088111ECCF1F910F915F
:101D4000FF90EF90DF90CF900895CF92DF92EF92C7
:101D5000FF920F931F93CF93DF930E94A2084091AD
:101D6000F7015091F8016091F3017091F401A4E63C
:101D7000CA2ED12CE12CF12C08EC10E020E030E050
:101D800081EF91E00E94AD078111E9CF4091F3010D
:101D90005091F4016091FB017091FC01F0E9CF2EAC
:101DA000DD24D394E12CF12C08EC10E020E030E0AD
:101DB00081EF91E00E94AD078111E8CFC9E1D0E049
:101DC0004091F9015091FA016091F3017091F40191
:101DD000E4E6CE2ED12CE12CF12C08EC10E020E032
:101DE00030E081EF91E00E94AD078111E9CF2197AA
:101DF00039F74091F3015091F4016091FB0170912A
:101E0000FC0138ECC32ED12CE12CF12C08EE13E0B0
:101E100020E030E081EF91E00E94AD078111E9CF31
:101E200060910B0270910C0214EFE12EFF24F394E9
:101E300000E010E028EC30E040E050E081EF91E07D
:101E40000E941C088111ECCF60911F02709120024A
:101E500018EEE12E13E0F12E00E010E028EC30E067
:101E600040E050E081EF91E00E941C088111ECCF2E
:101E700060910B0270910C0210EDE12E17E0F12E33
:101E800000E010E028EC30E040E050E081EF91E02D
:101E90000E941C088111ECCFDF91CF911F910F910F
:101EA000FF90EF90DF90CF900895CF92DF92EF9266
:101EB000FF920F931F93CF93DF930E94A20840914C
:101EC000F7015091F8016091F3017091F401C4E6BB
:101ED000CC2ED12CE12CF12C08EC10E020E030E0ED
:101EE00081EF91E00E94AD078111E9CF4091F301AC
:101EF0005091F4016091FB017091FC01B0E9CB2E8F
:101F0000DD24D394E12CF12C08EC10E020E030E04B
:101F100081EF91E00E94AD078111E8CFC9E1D0E0E7
:101F20004091F9015091FA016091F3017091F4012F
:101F3000A4E6CA2ED12CE12CF12C08EC10E020E014
:101F400030E081EF91E00E94AD078111E9CF219748
:101F500039F74091F3015091F4016091FB017091C8
:101F6000FC01F0E9CF2EDD24D394E12CF12C08EC18
:101F700010E020E030E081EF91E00E94AD07811198
:101F8000E8CF4091F7015091F8016091F301709111
:101F9000F401E4E6CE2ED12CE12CF12C08EC10E07B
:101FA00020E030E081EF91E00E94AD078111E9CFA0
:101FB0004091F3015091F4016091FB017091FC019B
:101FC00038ECC32ED12CE12CF12C08EE13E020E0EC
:101FD00030E081EF91E00E94AD078111E9CF60917F
:101FE0000B0270910C0214EFE12EFF24F39400E039
:101FF00010E028EC30E040E050E081EF91E00E94FA
:102000001C088111ECCF60911F027091200218EE24
:10201000E12E13E0F12E00E010E028EC30E040E08B
:1020200050E081EF91E00E941C088111ECCF60919B
:102030000B0270910C0210EDE12E17E0F12E00E082
:1020400010E028EC30E040E050E081EF91E00E94A9
:102050001C088111ECCFDF91CF911F910F91FF9060
:10206000EF90DF90CF900895FC0180916F029091E6
:102070007002892B21F421E0309749F413C080913C
:102080006B0290916C02309731F421E0FC01808169
:10209000882341F006C0BF010E94AD2321E0892BB7
:1020A00009F020E0822F08958F929F92AF92BF9205
:1020B000EF92FF920F931F93CF93DF93E82EF62EAC
:1020C000EA01480159010E941B0360936702709363
:1020D00068028093690290936A02009163021091F2
:1020E00064022091650230916602DC01CB01801B05
:1020F000910BA20BB30B88159905AA05BB05D0F46B
:1021000040914C0150914D01C42BD52BD0934D01E2
:10211000C0934C01E0924F01F09250018091330244
:1021200080935101809352010E9421070E94C904AB
:1021300081E015C00E941B036093630270936402E8
:1021400080936502909366028091330280934F01E1
:1021500080935001809351018093520180E0DF9180
:10216000CF911F910F91FF90EF90BF90AF909F90F4
:102170008F900895CF92DF92EF92FF920F931F936B
:10218000CF93DF93409133025091340260913D022E
:1021900070913E02A2E3CA2ED12CE12CF12C08EE64
:1021A00013E020E030E081E392E00E94AD0781116E
:1021B000E9CF4091390250913A0260913D0270910D
:1021C0003E02F2E3CF2ED12CE12CF12C04E610E0FC
:1021D00020E030E081E392E00E94AD078111E9CF79
:1021E0004091390250913A02609133027091340269
:1021F000E2E3CE2ED12CE12CF12C04E610E020E01D
:1022000030E081E392E00E94AD078111E9CF409177
:10221000390250913A0260913B0270913C0232E3E4
:10222000C32ED12CE12CF12C04E610E020E030E0AC
:1022300081E392E00E94AD078111E9CFC0E1D0E0D7
:102240004091490250914A026091330270913402E8
:1022500008EE13E020E030E080913B0290913C02D8
:102260000E9454108111ECCF219751F74091330215
:102270005091340260913B0270913C0222E3C22EE5
:10228000D12CE12CF12C06E910E020E030E081E3D4
:1022900092E00E94AD078111E9CF4091390250913F
:1022A0003A0260913B0270913C0292E3C92ED12C1C
:1022B000E12CF12C06E910E020E030E081E392E02F
:1022C0000E94AD078111E9CF4091390250913A0245
:1022D00060913D0270913E0282E3C82ED12CE12C28
:1022E000F12C08EB1BE020E030E081E392E00E945B
:1022F000AD078111E9CFC4E0D0E04091490250918F
:102300004A0260913302709134020CE81AE020E036
:1023100030E080913D0290913E020E945410811164
:10232000ECCF409133025091340260913D027091A4
:102330003E02C12CD12C760104E610E020E030E012
:1023400081E392E00E94AD078111EBCF2197A9F6BE
:10235000DF91CF911F910F91FF90EF90DF90CF9081
:1023600008958F929F92AF92BF92CF92DF92EF9299
:10237000FF920F931F93CF93DF934C0160914D0217
:1023800070914E0210EBE12E14E0F12E00E010E00F
:1023900024E630E040E050E081E392E00E941C0837
:1023A0008111ECCF60914B0270914C0210EDE12E47
:1023B00017E0F12E00E010E024E630E040E050E0CD
:1023C00081E392E00E941C088111ECCF60915102E0
:1023D0007091520210EDE12E17E0F12E00E010E0B6
:1023E00024E630E040E050E081E392E00E941C08E7
:1023F0008111ECCF409133025091340260913D0243
:1024000070913E02B4E6CB2ED12CE12CF12C04E6E7
:1024100010E020E030E081E392E00E94AD078111FE
:10242000E9CFC5E0D0E060914B0270914C0214EF0F
:10243000E12EFF24F39400E010E024E630E040E0D9
:1024400050E081E392E00E941C088111ECCF609182
:102450004B0270914C0214EFE12EFF24F39400E044
:1024600010E024E630E040E050E081E392E00E949A
:102470001C088111ECCFA12CB12CA814B904DCF4F8
:10248000409133025091340260913B0270913C02C2
:10249000E8ECCE2ED12CE12CF12C04E610E020E06B
:1024A00030E081E392E00E94AD078111E9CF8FEF28
:1024B000A81AB80AE2CF60914B0270914C021CE25C
:1024C000E12EFF24F39400E010E024E630E040E049
:1024D00050E081E392E00E941C088111ECCF409112
:1024E000390250913A02609133027091340224E62D
:1024F000C22ED12CE12CF12C04E610E020E030E0DB
:1025000081E392E00E94AD078111E9CFA12CB12CAB
:10251000A814B904DCF44091330250913402609164
:102520003D0270913E0298ECC92ED12CE12CF12C89
:1025300004E610E020E030E081E392E00E94AD0785
:102540008111E9CF8FEFA81AB80AE2CF219709F0DD
:102550006ACFCAE0D0E06091490270914A0218EC5B
:10256000E12EF12C00E010E024E630E040E050E005
:1025700081E392E00E941C088111EDCF219759F769
:10258000DF91CF911F910F91FF90EF90DF90CF904F
:10259000BF90AF909F908F900895AF92BF92CF92CF
:1025A000DF92EF92FF920F931F93CF93DF935C0123
:1025B000C0E0D0E0CA15DB050CF0B2C04091370294
:1025C000509138026091330270913402C12CD12CA9
:1025D0007601C39404E610E020E030E081E392E06D
:1025E0000E94AD078111EACF409137025091380225
:1025F00060913B0270913C02C12CD12C7601C394B6
:1026000004E610E020E030E081E392E00E94AD07B4
:102610008111EACF409133025091340260913B0224
:1026200070913C02C12CD12C7601C39404E610E0D9
:1026300020E030E081E392E00E94AD078111EACF13
:102640004091390250913A0260913B0270913C02F4
:10265000C12CD12C7601C39404E610E020E030E0D8
:1026600081E392E00E94AD078111EACF40913902E7
:1026700050913A026091330270913402C12CD12CF6
:102680007601C39404E610E020E030E081E392E0BC
:102690000E94AD078111EACF4091390250913A0270
:1026A00060913D0270913E02C12CD12C7601C39401
:1026B00004E610E020E030E081E392E00E94AD0704
:1026C0008111EACF409133025091340260913D0272
:1026D00070913E02C12CD12C7601C39404E610E027
:1026E00020E030E081E392E00E94AD078111EACF63
:1026F000409137025091380260913D0270913E0244
:10270000C12CD12C7601C39404E610E020E030E027
:1027100081E392E00E94AD078111EACF21964ACF72
:10272000DF91CF911F910F91FF90EF90DF90CF90AD
:10273000BF90AF900895EF92FF920F931F93609117
:10274000490270914A0218EBE12E1BE0F12E00E0E5
:1027500010E02CE231E040E050E081E392E00E94A2
:102760001C088111ECCF6091490270914A0218EB6C
:10277000E12E1BE0F12E00E010E02CE231E040E021
:1027800050E081E392E00E941C088111ECCF60913F
:10279000490270914A0218EBE12E1BE0F12E00E095
:1027A00010E02CE231E040E050E081E392E00E9452
:1027B0001C088111ECCF6091490270914A0218EB1C
:1027C000E12E1BE0F12E00E010E02CE231E040E0D1
:1027D00050E081E392E00E941C088111ECCF6091EF
:1027E000490270914A0218EBE12E1BE0F12E00E045
:1027F00010E02CE231E040E050E081E392E00E9402
:102800001C088111ECCF6091490270914A0218EBCB
:10281000E12E1BE0F12E00E010E02CE231E040E080
:1028200050E081E392E00E941C088111ECCF1F91DF
:102830000F91FF90EF900895AF92BF92CF92DF92E9
:10284000EF92FF920F931F93CF93DF935C01609100
:102850004B0270914C0218EEE12E13E0F12E00E0D5
:1028600010E024E630E040E050E081E392E00E9496
:102870001C088111ECCF60914B0270914C0214EF57
:10288000E12EFF24F39400E010E024E630E040E085
:1028900050E081E392E00E941C088111ECCF60912E
:1028A000490270914A0216E9E12EF12C00E010E095
:1028B00026E930E040E050E081E392E00E941C080D
:1028C0008111EDCF6091490270914A0216E9E12E23
:1028D000F12C00E010E026E930E040E050E081E338
:1028E00092E00E941C088111EDCF60914902709125
:1028F0004A0216E9E12EF12C00E010E026E930E072
:1029000040E050E081E392E00E941C088111EDCF8D
:102910004091390250913A0260913D0270913E021D
:10292000C12CD12C7601C3940CE211E020E030E000
:1029300081E392E00E94AD078111EACF60914B02E2
:1029400070914C021CEDE12E15E0F12E00E010E03C
:1029500026E930E040E050E081E392E00E941C086C
:102960008111ECCF60914B0270914C0218EEE12E78
:1029700013E0F12E00E010E024E630E040E050E00B
:1029800081E392E00E941C088111ECCF60914B0220
:1029900070914C0218EEE12E13E0F12E00E010E0F1
:1029A00024E630E040E050E081E392E00E941C0821
:1029B0008111ECCF60914B0270914C0218EEE12E28
:1029C00013E0F12E00E010E024E630E040E050E0BB
:1029D00081E392E00E941C088111ECCF60914B02D0
:1029E00070914C021CEDE12E15E0F12E00E010E09C
:1029F00024E630E040E050E081E392E00E941C08D1
:102A00008111ECCFC0E0D0E0CA15DB05E4F42097DB
:102A1000C1F04091390250913A02609133027091B5
:102A200034023CE2C32EDD24D394E12CF12C04E6E5
:102A300010E020E030E081E392E00E94AD078111D8
:102A4000E8CF2196E1CF60914B0270914C0214ECDB
:102A5000E12E19E0F12E00E010E024E630E040E045
:102A600050E081E392E00E941C088111ECCF60915C
:102A7000490270914A0214ECE12E19E0F12E00E0B7
:102A800010E024E630E040E050E081E392E00E9474
:102A90001C088111ECCF6091490270914A0214EC3C
:102AA000E12E19E0F12E00E010E024E630E040E0F5
:102AB00050E081E392E00E941C088111ECCFDF918D
:102AC000CF911F910F91FF90EF90DF90CF90BF902B
:102AD000AF900895CF92DF92EF92FF920F931F93E2
:102AE0004091370250913802609133027091340264
:102AF00094E6C92ED12CE12CF12C08EE13E020E055
:102B000030E081E392E00E94AD078111E9CF40916E
:102B100037025091380260913B0270913C0284E68A
:102B2000C82ED12CE12CF12C08E813E120E030E094
:102B300081E392E00E94AD078111E9CF1F910F91CF
:102B4000FF90EF90DF90CF9008950F931F930E9416
:102B50001B0360935C0170935D0180935E01909311
:102B60005F01E0915401F09155010680F781E02D5D
:102B700084E591E0099597FF1FC00E941B03009117
:102B80005C0110915D0120915E0130915F01DC01DB
:102B9000CB01801B910BA20BB30B0091580110913C
:102BA000590120915A0130915B0180179107A207CA
:102BB000B307B8F28FEF9FEF1F910F910895CF9356
:102BC000DF93CDB7DEB728970FB6F894DEBF0FBE00
:102BD000CDBF789484B5826084BD84B5816084BDA6
:102BE00085B5826085BD85B5816085BD80916E00AB
:102BF000816080936E0010928100809181008260DC
:102C00008093810080918100816080938100809118
:102C10008000816080938000809191008260809329
:102C2000910080919100816080939100809190004B
:102C30008160809390008091C10084608093C10086
:102C40008091C10082608093C1008091C100816049
:102C50008093C1008091C30081608093C300809104
:102C6000C00082608093C0008091C2008160809328
:102C7000C20080917A00846080937A0080917A000B
:102C8000826080937A0080917A00816080937A00DC
:102C900080917A00806880937A0084B7877F84BFB0
:102CA0000FB6F894A89580916000886180936000C9
:102CB000109260000FBE20E030E080E80FB6F8947C
:102CC00080936100209361000FBE8091D8008F7EB9
:102CD0008093D8008091D70081608093D70084E0F2
:102CE00082BF81E080933A018091D8008E7F8093EB
:102CF000D8001092E2001092DA001092E100809168
:102D0000D8008F778093D8008091D8008068809316
:102D1000D8008091D8008F7D8093D80019BC109284
:102D200039011092380110923701109236018091CA
:102D3000E0008B7F8093E0008091D80081608093D9
:102D4000D80042E360E080E00E94D3038091E1007C
:102D50008E7F8093E1008091E20081608093E200A9
:102D60008091E20088608093E2008091E0008E7F95
:102D70008093E0008091D80080618093D80078949F
:102D8000E0916401F091650182E08083E09160014F
:102D9000F09161011082E0916201F09163018FEC8A
:102DA000808310926C01E0916801F091690186E0E6
:102DB0008083E0916601F09167018081806180836A
:102DC000E0916601F0916701808188608083E091E5
:102DD0006601F0916701808180688083E0916601DF
:102DE000F091670180818F7D8083EDEFF0E0249189
:102DF000EEEDF0E084918823D9F090E0880F991FE0
:102E0000FC01E253FF4FA591B491FC01E054FF4F48
:102E1000859194918FB7F894EC91E22BEC938FBF4E
:102E200007C084E391E00E94341081110C94ED20DE
:102E300084E591E00E947401892B11F40C94052122
:102E40001A8219821C821B821E821D8240E050E081
:102E500067E171E0CE0101960E9498020E94A515DB
:102E600097FD1BC08F8318860D811E810F5F1F4F3A
:102E7000B801CE0101960E947102882379F329815D
:102E80003A818D819E81BE01695F7F4F820F931FC2
:102E90000E94B6231E830D83E1CF80916B02909137
:102EA0006C020097C9F069817A816115710591F012
:102EB00040916D0250916E022D813E814217530761
:102EC00048F00E94B6238D819E819093700280937A
:102ED0006F0218C00E943D2289819A8190936C02F2
:102EE00080936B028B819C8190936E0280936D0224
:102EF0008D819E819093700280936F021A82198255
:102F00001C821B821E821D8289819A810E943D2221
:102F100086E191E00E943410882329F080E09AE055
:102F20000E949509FBCF88E191E00E94341088232C
:102F300029F080E09FE00E949509FBCF8AE191E0B3
:102F40000E943410882329F080E094E10E949509C2
:102F5000FBCF8CE191E00E943410882329F080E0BF
:102F600099E10E949509FBCF8EE191E00E94341017
:102F7000882329F080E09EE10E949509FBCF80E242
:102F800091E00E943410882329F080E093E20E94AF
:102F90009509FBCF82E291E00E943410882329F04A
:102FA00080E098E20E949509FBCF84E291E00E94C4
:102FB0003410882309F453C0F4E1CF2ED12C609152
:102FC000490270914A0212E3E12EF12C00E010E078
:102FD00024E630E040E050E081E392E00E941C08EB
:102FE0008111EDCF81E0C81AD10849F781E090E066
:102FF0000E94B11154E1C52ED12C6091490270910B
:103000004A0214E6E12EF12C00E010E024E630E064
:1030100040E050E081E392E00E941C088111EDCF76
:1030200081E0C81AD10849F70E94BA100E94BA106C
:103030000E94BA100E94BA100E94BA100E949B13FC
:103040000E949B130E949B130E949B130E949B1340
:1030500082E090E00E94B1110E94BA10ADCF86E2EA
:1030600091E00E943410882309F46EC260910B0233
:1030700070910C0216E9E12EF12C00E010E024E63C
:1030800030E040E050E081EF91E00E941C088111A7
:10309000EDCF4091F7015091F8016091F3017091EB
:1030A000F40124E6C22ED12CE12CF12C04E610E030
:1030B00020E030E081EF91E00E94AD078111E9CF7F
:1030C0004091F7015091F8016091F3017091F40182
:1030D00094E6C92ED12CE12CF12C04E610E020E07E
:1030E00030E081EF91E00E94AD078111E9CF60915E
:1030F0000B0270910C021CE2E12EFF24F39400E01D
:1031000010E024E630E040E050E081EF91E00E94E2
:103110001C088111ECCF4091F7015091F8016091AA
:10312000F3017091F40114E6C12ED12CE12CF12CA5
:1031300004E610E020E030E081EF91E00E94AD076E
:103140008111E9CF60910B0270910C021CE2E12E1B
:10315000FF24F39400E010E024E630E040E050E08B
:1031600081EF91E00E941C088111ECCF60910B026D
:1031700070910C0218EEE12E13E0F12E00E010E049
:1031800024E630E040E050E081EF91E00E941C082E
:103190008111ECCF6091090270910A021CE2E12ECC
:1031A000FF24F39400E010E024E630E040E050E03B
:1031B00081EF91E00E941C088111ECCF4091F90150
:1031C0005091FA016091F3017091F401E4E6CE2E82
:1031D000D12CE12CF12C04E610E020E030E081EF6E
:1031E00091E00E94AD078111E9CF45E0842E912C3A
:1031F000B5E0AB2EB12C96E0692E712C60910B02DC
:1032000070910C021AEFE12EF12C00E010E024E6A0
:1032100030E040E050E081EF91E00E941C08811115
:10322000EDCF4091F7015091F8016091F301709159
:10323000F40128ECC22ED12CE12CF12C04E610E094
:1032400020E030E081EF91E00E94AD078111E9CFED
:103250004091F7015091F8016091F3017091F401F0
:1032600098ECC92ED12CE12CF12C04E610E020E0E2
:1032700030E081EF91E00E94AD078111E9CF6091CC
:103280000B0270910C0210EBE12E14E0F12E00E025
:1032900010E024E630E040E050E081EF91E00E9451
:1032A0001C088111ECCF4091F7015091F801609119
:1032B000F3017091F40116E9C12ED12CE12CF12C0F
:1032C00004E610E020E030E081EF91E00E94AD07DD
:1032D0008111E9CF60910B0270910C0218E5E12E8B
:1032E00012E0F12E00E010E024E630E040E050E093
:1032F00081EF91E00E941C088111ECCF60910B02DC
:1033000070910C021AE8E12E12E0F12E00E010E0BC
:1033100024E630E040E050E081EF91E00E941C089C
:103320008111ECCF60910B0270910C0218E5E12E37
:1033300012E0F12E00E010E024E630E040E050E042
:1033400081EF91E00E941C088111ECCF4091F301C4
:103350005091F4016091FB017091FC01E8ECCE2EDC
:10336000D12CE12CF12C04E610E020E030E081EFDC
:1033700091E00E94AD078111E9CF81E0681A7108E0
:1033800009F03CCF4091F3015091F4016091FB01B1
:103390007091FC0138ECC32ED12CE12CF12C04E609
:1033A00010E020E030E081EF91E00E94AD07811154
:1033B000E9CF4091F9015091FA016091F3017091C8
:1033C000F40128ECC22ED12CE12CF12C08EC10E0F9
:1033D00020E030E081EF91E00E94AD078111E9CF5C
:1033E00081E0A81AB10809F006CF4091F901509187
:1033F000FA016091F3017091F40188ECC82ED12C90
:10340000E12CF12C04E610E020E030E081EF91E0C7
:103410000E94AD078111E9CF4091F3015091F40171
:103420006091FB017091FC0108ECC02ED12CE12CC5
:10343000F12C04E610E020E030E081EF91E00E9402
:10344000AD078111E9CF4091F9015091FA016091E6
:10345000F3017091F40118ECC12ED12CE12CF12C68
:1034600004E610E020E030E081EF91E00E94AD073B
:103470008111E9CF81E0881A910809F0B9CE6091F5
:103480000D0270910E0210EAE12E1BEBF12E0DE001
:1034900010E028EC30E040E050E081EF91E00E9445
:1034A0001C088111ECCF60910D0270910E0210EAA0
:1034B000E12E1BEBF12E0DE010E028EC30E040E0B7
:1034C00050E081EF91E00E941C088111ECCF6091E7
:1034D0000D0270910E0210EAE12E1BEBF12E0DE0B1
:1034E00010E028EC30E040E050E081EF91E00E94F5
:1034F0001C088111ECCF60910D0270910E0210EA50
:10350000E12E1BEBF12E0DE010E028EC30E040E066
:1035100050E081EF91E00E941C088111ECCF609196
:103520000D0270910E0210EAE12E1BEBF12E0DE060
:1035300010E028EC30E040E050E081EF91E00E94A4
:103540001C088111ECCF92CD88E291E00E943410EA
:10355000882391F060910B0270910C0216E9E12E24
:10356000F12C00E010E026E930E040E050E081EF8F
:1035700091E00E941C08EECF8AE291E00E94341094
:10358000882309F45CC060910B0270910C0216E96B
:10359000E12EF12C00E010E026E930E040E050E0C0
:1035A00081EF91E00E941C088111EDCF9FE0C92EB0
:1035B000D12C6091090270910A0216E9E12EF12CDA
:1035C00000E010E026E930E040E050E081EF91E0DB
:1035D0000E941C088111EDCF81E0C81AD10849F77B
:1035E00080912B0290912C02499764F40E94140E52
:1035F00080912B0290912C02019690932C02809343
:103600002B02C1CF80912D0290912E020C9764F471
:103610000E94A50E80912D0290912E02019690930A
:103620002E0280932D0206C00E94550F10922E028A
:1036300010922D0210922C0210922B02A4CF8CE239
:1036400091E00E943410882309F464C0B6E0CB2EC8
:10365000D12C60910B0270910C0218EEE12E13E058
:10366000F12E00E010E026E930E040E050E081EF8C
:1036700091E00E941C088111ECCF81E0C81AD108AA
:1036800041F7F9E1CF2ED12C6091090270910A0225
:1036900016E9E12EF12C00E010E026E930E040E0F0
:1036A00050E081EF91E00E941C088111EDCF81E094
:1036B000C81AD10849F780912B0290912C024997A2
:1036C00064F40E94140E80912B0290912C020196BA
:1036D00090932C0280932B02B9CF80912D02909170
:1036E0002E020C9764F40E94A50E80912D029091F9
:1036F0002E02019690932E0280932D0206C00E9406
:10370000550F10922E0210922D0210922C02109240
:103710002B029CCF8EE291E00E943410882309F4A2
:1037200064C066E0C62ED12C60910B0270910C0231
:1037300010EBE12E14E0F12E00E010E026E930E07D
:1037400040E050E081EF91E00E941C088111ECCF35
:1037500081E0C81AD10841F74DE0C42ED12C609108
:10376000090270910A0216E9E12EF12C00E010E046
:1037700026E930E040E050E081EF91E00E941C0833
:103780008111EDCF81E0C81AD10849F780912B0251
:1037900090912C02499764F40E94140E80912B02A0
:1037A00090912C02019690932C0280932B02B9CF1A
:1037B00080912D0290912E020C9764F40E94A50E28
:1037C00080912D0290912E02019690932E0280936B
:1037D0002D0206C00E94550F10922E0210922D024B
:1037E00010922C0210922B029CCF80E391E00E9459
:1037F0003410882309F4C9C06091090270910A024B
:1038000016E9E12EF12C00E010E026E930E040E07E
:1038100050E081EF91E00E941C088111EDCF609192
:10382000090270910A0216E9E12EF12C00E010E085
:1038300026E930E040E050E081EF91E00E941C0872
:103840008111EDCF60910B0270910C0218EEE12E08
:1038500013E0F12E00E010E026E930E040E050E017
:1038600081EF91E00E941C088111ECCF60910B0266
:1038700070910C0218EEE12E13E0F12E00E010E042
:1038800026E930E040E050E081EF91E00E941C0822
:103890008111ECCF4091F9015091FA016091F3014F
:1038A0007091F401A8ECCA2ED12CE12CF12C04E685
:1038B00010E020E030E081EF91E00E94AD0781113F
:1038C000E9CFF8E0CF2ED12C60910B0270910C0261
:1038D00014EFE12EFF24F39400E010E026E930E03D
:1038E00040E050E081EF91E00E941C088111ECCF94
:1038F00081E0C81AD10841F763E2C62ED12C60914D
:10390000090270910A0216E9E12EF12C00E010E0A4
:1039100026E930E040E050E081EF91E00E941C0891
:103920008111EDCF81E0C81AD10849F780912B02AF
:1039300090912C02499764F40E94140E80912B02FE
:1039400090912C02019690932C0280932B0254CFDD
:1039500080912D0290912E020C9764F40E94A50E86
:1039600080912D0290912E02019690932E028093C9
:103970002D0206C00E94550F10922E0210922D02A9
:1039800010922C0210922B0237CF82E391E00E941A
:103990003410882309F445CA45E0C42ED12C609127
:1039A000090270910A0216E9E12EF12C00E010E004
:1039B00026E930E040E050E081EF91E00E941C08F1
:1039C0008111EDCF81E0C81AD10849F74091F70184
:1039D0005091F8016091F3017091F40128ECC22E2E
:1039E000D12CE12CF12C0CE211E020E030E081EF51
:1039F00091E00E94AD078111E9CF60910B027091B7
:103A00000C0218EEE12E13E0F12E00E010E026E9A2
:103A100030E040E050E081EF91E00E941C0881110D
:103A2000ECCF60910B0270910C0218EEE12E13E0C6
:103A3000F12E00E010E026E930E040E050E081EFB8
:103A400091E00E941C088111ECCF4091F901509146
:103A5000FA016091F3017091F401B8ECCB2ED12CF6
:103A6000E12CF12C04E610E020E030E081EF91E061
:103A70000E94AD078111E9CF4091F9015091FA01FF
:103A80006091F3017091F401A8ECCA2ED12CE12CC5
:103A9000F12C04E610E020E030E081EF91E00E949C
:103AA000AD078111E9CF60910B0270910C0214EC0B
:103AB000E12E19E0F12E00E010E026E930E040E0D0
:103AC00050E081EF91E00E941C088111ECCF6091E1
:103AD0000B0270910C0210E9E12EFF24F39400E038
:103AE00010E026E930E040E050E081EF91E00E94F4
:103AF0001C088111ECCF60910B0270910C0210E94F
:103B0000E12EFF24F39400E010E026E930E040E0ED
:103B100050E081EF91E00E941C088111ECCF609190
:103B20000B0270910C0210E2E12E13E0F12E00E086
:103B300010E026E930E040E050E081EF91E00E94A3
:103B40001C088111ECCF60910B0270910C0210E205
:103B5000E12E13E0F12E00E010E026E930E040E035
:103B600050E081EF91E00E941C088111ECCF609140
:103B70000B0270910C0210E2E12E13E0F12E00E036
:103B800010E026E930E040E050E081EF91E00E9453
:103B90001C088111ECCF60910B0270910C0210E2B5
:103BA000E12E13E0F12E00E010E026E930E040E0E5
:103BB00050E081EF91E00E941C088111ECCF6091F0
:103BC00007027091080214E6E12EF12C00E010E0EB
:103BD00026E930E040E050E081EF91E00E941C08CF
:103BE0008111EDCF14E0A12EB12C60910B027091E8
:103BF0000C0214E6E12EF12C00E010E026E930E0A2
:103C000040E050E081EF91E00E941C088111EDCF6F
:103C10004091F3015091F4016091FB017091FC011E
:103C2000A4E6CA2ED12CE12CF12C06E910E020E00C
:103C300030E081EF91E00E94AD078111E9CF81E092
:103C4000A81AB10891F64091F3015091F4016091E6
:103C5000FD017091FE01F4E6CF2ED12CE12CF12C68
:103C600006E910E020E030E081EF91E00E94AD072E
:103C70008111E9CF4091F9015091FA016091F3016E
:103C80007091F401E4E6CE2ED12CE12CF12C06E962
:103C900010E020E030E081EF91E00E94AD0781115B
:103CA000E9CF34E0A32EB12C60910B0270910C028D
:103CB00014E6E12EF12C00E010E026E930E040E0CF
:103CC00050E081EF91E00E941C088111EDCF4091FE
:103CD000F3015091F4016091FD017091FE0194E6B1
:103CE000C92ED12CE12CF12C06E910E020E030E0C7
:103CF00081EF91E00E94AD078111E9CF81E0A81A20
:103D0000B10891F66091090270910A0210E9E12E62
:103D1000FF24F39400E010E026E930E040E050E0BA
:103D200081EF91E00E941C088111ECCF60910B02A1
:103D300070910C0210EBE12E14E0F12E00E010E087
:103D400026E930E040E050E081EF91E00E941C085D
:103D50008111ECCF60910D0270910E0214ECE12EF6
:103D600019E0F12E00E010E022E030E040E050E009
:103D700081EF91E00E941C088111ECCF60910B0251
:103D800070910C0210EBE12E14E0F12E00E010E037
:103D900026E930E040E050E081EF91E00E941C080D
:103DA0008111ECCF4091F9015091FA016091F3013A
:103DB0007091F401E4E6CE2ED12CE12CF12C06E931
:103DC00010E020E030E081EF91E00E94AD0781112A
:103DD000E9CF60910B0270910C0210E7E12E17E120
:103DE000F12E00E010E026E930E040E050E081EF05
:103DF00091E00E941C088111ECCF60910B02709140
:103E00000C0218E8E12E13E1F12E00E010E026E9A3
:103E100030E040E050E081EF91E00E941C08811109
:103E2000ECCF80912B0290912C02499764F40E9470
:103E3000140E80912B0290912C02019690932C02EB
:103E400080932B021CC080912D0290912E020C9722
:103E500064F40E94A50E80912D0290912E0201968D
:103E600090932E0280932D0206C00E94550F10924F
:103E70002E0210922D0210922C0210922B026091B1
:103E80000B0270910C021CE2E12EFF24F39400E07F
:103E900010E026E930E040E050E081EF91E00E9440
:103EA0001C088111ECCF60910B0270910C0218E894
:103EB000E12E13E1F12E00E010E026E930E040E0D1
:103EC00050E081EF91E00E941C088111ECCF93E259
:103ED000C92ED12C6091090270910A021CE2E12ED8
:103EE000FF24F39400E010E026E930E040E050E0E9
:103EF00081EF91E00E941C088111ECCF81E0C81A8B
:103F0000D10841F760910B0270910C0218EEE12E7E
:103F100013E0F12E00E010E026E930E040E050E050
:103F200081EF91E00E941C088111ECCF60910B029F
:103F300070910C0218EEE12E13E0F12E00E010E07B
:103F400026E930E040E050E081EF91E00E941C085B
:103F50008111ECCF4091F9015091FA016091F30188
:103F60007091F401F8ECCF2ED12CE12CF12C04E669
:103F700010E020E030E081EF91E00E94AD07811178
:103F8000E9CF4091F9015091FA016091F3017091EC
:103F9000F401E8ECCE2ED12CE12CF12C04E610E05B
:103FA00020E030E081EF91E00E94AD078111E9CF80
:103FB00060910B0270910C0214ECE12E19E0F12ECD
:103FC00000E010E026E930E040E050E081EF91E0D1
:103FD0000E941C088111ECCF60910B0270910C02C1
:103FE00010E9E12EFF24F39400E010E026E930E030
:103FF00040E050E081EF91E00E941C088111ECCF7D
:1040000060910B0270910C0210E9E12EFF24F394F1
:1040100000E010E026E930E040E050E081EF91E080
:104020000E941C088111ECCF7ACD4091F70150918C
:10403000F8016091F3017091F40106E9C02ED12CD2
:10404000E12CF12C08EC10E020E030E081EF91E071
:104050000E94AD078111E9CF4091F7015091F8011D
:104060006091F3017091F40118ECC12ED12CE12C78
:10407000F12C00EA1FE020E030E081EF91E00E94A7
:10408000AD078111E9CFB4E0AB2EB12C4091F7011F
:104090005091F8016091F3017091F401A8ECCA2EDF
:1040A000D12CE12CF12C0CE211E020E030E081EF8A
:1040B00091E00E94AD078111E9CF81E0A81AB10813
:1040C00029F760910B0270910C0216E9E12EF12C98
:1040D00000E010E026E930E040E050E081EF91E0C0
:1040E0000E941C088111EDCF60910B0270910C02AF
:1040F00016E9E12EF12C00E010E026E930E040E086
:1041000050E081EF91E00E941C088111EDCF609199
:10411000090270910A0216E9E12EF12C00E010E08C
:1041200026E930E040E050E081EF91E00E941C0879
:104130008111EDCF6091090270910A0216E9E12E1A
:10414000F12C00E010E026E930E040E050E081EFA3
:1041500091E00E941C088111EDCF609109027091DD
:104160000A0216E9E12EF12C00E010E026E930E029
:1041700040E050E081EF91E00E941C088111EDCFFA
:1041800024E6C22ED12C60910B0270910C0216E92C
:10419000E12EF12C00E010E026E930E040E050E0B4
:1041A00081EF91E00E941C088111EDCF60910B021C
:1041B00070910C0216E9E12EF12C00E010E026E9E6
:1041C00030E040E050E081EF91E00E941C08811156
:1041D000EDCF81E0C81AD108B1F64091F7015091B6
:1041E000F8016091F3017091F40186E9C82ED12C99
:1041F000E12CF12C08EC10E020E030E081EF91E0C0
:104200000E94AD078111E9CF10CF0E9414020C94D7
:10421000181780916B0290916C020C943D22E4E59A
:10422000F1E01382128288EE93E0A0E0B0E0848394
:104230009583A683B7838AE091E0918380838DEC98
:1042400090E0958784878CEC90E09787868788EC50
:1042500090E0918B808B89EC90E0938B828B8AEC41
:1042600090E0958B848B8EEC90E0978B868B118EF3
:10427000128E138E148E81E792E00E947103EBE69A
:10428000F2E011821082138212821582148240E0C1
:1042900050E067E171E0CF010E94980281E392E073
:1042A0000E94710381EF91E00E947103E1EFF1E060
:1042B00013AE12AE15AE14AE1092300210922F0251
:1042C0000E941B036093AB027093AC028093AD021B
:1042D0009093AE0208952F923F924F925F926F9209
:1042E0007F928F929F92AF92BF92CF92DF92EF9286
:1042F000FF920F931F93CF93DF93CDB7DEB7CA1B07
:10430000DB0B0FB6F894DEBF0FBECDBF09942A8831
:10431000398848885F846E847D848C849B84AA84D9
:10432000B984C884DF80EE80FD800C811B81AA8166
:10433000B981CE0FD11D0FB6F894DEBF0FBECDBF31
:10434000ED010895EE0FFF1F0590F491E02D099403
:10435000CF93DF938230910510F482E090E0E091FA
:10436000B102F091B20220E030E0C0E0D0E030973E
:1043700011F14081518148175907C0F0481759077A
:1043800061F482819381209719F09B838A832BC0EB
:104390009093B2028093B10226C02115310519F025
:1043A0004217530718F49A01BE01DF01EF010280A2
:1043B000F381E02DDCCF2115310509F1281B390BE4
:1043C0002430310590F412968D919C9113976115CC
:1043D000710521F0FB019383828304C09093B202A4
:1043E0008093B102FD01329644C0FD01E20FF31F3C
:1043F00081939193225031092D933C933AC020919F
:10440000AF023091B002232B41F420910201309190
:1044100003013093B0022093AF022091000130914C
:1044200001012115310541F42DB73EB7409104013A
:1044300050910501241B350BE091AF02F091B002C1
:10444000E217F307A0F42E1B3F0B2817390778F06B
:10445000AC014E5F5F4F2417350748F04E0F5F1FCA
:104460005093B0024093AF028193919302C0E0E079
:10447000F0E0CF01DF91CF9108950F931F93CF9379
:10448000DF93009709F48CC0FC01329713821282EB
:104490000091B1021091B2020115110581F4208141
:1044A0003181820F931F2091AF023091B002281703
:1044B000390779F5F093B002E093AF0271C0D801EB
:1044C00040E050E0AE17BF0750F412962D913C919A
:1044D0001397AD012115310509F1D901F3CF9D01E4
:1044E000DA013383228360817181860F971F8217DF
:1044F000930769F4EC0128813981260F371F2E5F5D
:104500003F4F318320838A819B8193838283452B14
:1045100029F4F093B202E093B10242C01396FC93E7
:10452000EE931297ED01499159919E01240F351F89
:10453000E217F30771F480819181840F951F029631
:1045400011969C938E938281938113969C938E9364
:104550001297E0E0F0E0D80112968D919C911397AC
:10456000009719F0F8018C01F6CF8D919C9198017C
:104570002E5F3F4F820F931F2091AF023091B00208
:104580002817390769F4309729F41092B202109273
:10459000B10202C0138212821093B0020093AF02E4
:1045A000DF91CF911F910F910895A0E0B0E0EBED66
:1045B000F2E20C946F21EC01009721F4CB010E94F0
:1045C000A821B8C0FC01E60FF71F9C012250310959
:1045D000E217F30708F4ACC0D9010D911C911197B3
:1045E00006171707B0F00530110508F49FC0C80181
:1045F00004978617970708F499C002501109061B03
:10460000170B019311936D937C93CF010E943D2270
:104610008DC05B01A01AB10A4C01800E911EA091C1
:10462000B102B091B20240E050E0E12CF12C1097C1
:1046300009F44AC0A815B905D1F56D907C90119781
:10464000630182E0C80ED11CCA14DB0480F1A3010F
:104650004A195B096A0182E0C80ED11C1296BC900F
:1046600012971396AC91B5E0CB16D10440F0B2820C
:10467000A38351834083D9016D937C930AC00E5F5D
:104680001F4FC301800F911FF90191838083EB2D90
:10469000FA2FE114F10431F0D7011396FC93EE9355
:1046A000129744C0F093B202E093B1023FC08D91E3
:1046B0009C9111974817590708F4AC017D01129697
:1046C0000D90BC91A02DB3CF8091AF029091B0021C
:1046D00088159905E1F446175707C8F48091000141
:1046E00090910101009741F48DB79EB7409104016C
:1046F00050910501841B950BE817F907C8F4F09356
:10470000B002E093AF02F901718360830FC0CB0167
:104710000E94A8217C01009759F0A801BE010E94C7
:10472000A423CE010E943D22C70104C0CE0102C0D5
:1047300080E090E0CDB7DEB7EEE00C948B2181E015
:1047400090E0F8940C94BD23FB01DC0102C00190C1
:104750000D9241505040D8F70895FB01DC018D9136
:10476000019080190110D9F3990B0895FB01DC0128
:1047700001900D920020E1F7089510E0CBEFD0E01A
:1047800004C0FE010E94A2212196CC3FD107C9F7A7
:04479000F894FFCFCB
:104794000000B302800000000000AB012701740197
:1047A40052016601F2016100620063006400650069
:1047B4006600670069006A006B006C006E006F00A1
:0647C4007000720073009A
:2070000055C000006EC000006CC000006AC0000068C0000066C0000064C0000062C0000043
:2070200060C000005EC00000F2C400005AC0000058C0000056C0000054C0000052C00000EE
:2070400050C0000078C000004CC000004AC0000048C0000046C0000044C0000042C00000BE
:2070600040C000003EC000003CC000003AC0000038C0000036C0000034C0000032C0000048
:2070800030C000002EC000002CC000002AC0000028C0000026C0000024C0000022C00000A8
:2070A00020C000001EC000001CC0000011241FBECFEFDAE0DEBFCDBF11E0A0E0B1E0E2E3BC
:2070C000FFE702C005900D92A83AB107D9F711E0A8EAB1E001C01D92AE3BB107E1F78FD30B
:2070E00026C78ECFF89410926F0010928100109285001092840081E085BF15BE47985D9AEB
:20710000289A0C94000008952091B2013091B3012F5F3F4F3093B3012093B201932F37FFA6
:2071200003C08EEF831B982F990F921710F447980895479A08951F920F920FB60F9211246E
:207140002F938F939F93EF93FF9310928500109284008091A8019091A901009741F00197D3
:207160009093A9018093A801892B09F45D9A8091AA019091AB01009741F001979093AB0126
:207180008093AA01892B09F4289AE0E0F0E0859194918F5F9F4F49F08091AC019091AD0151
:2071A00001969093AD018093AC01FF91EF919F918F912F910F900FBE0F901F90189584E0BC
:2071C0008093E9000DC08091E8008B778093E80003C08EB3882351F08091E80082FFF9CFBE
:2071E0008091E80085FFEFCF8091F1000895982F83E08093E9008091E80085FD0DC0809136
:20720000E8008E778093E80003C08EB3882369F08091E80080FFF9CF9093F1005D9884E6CB
:2072200090E09093A9018093A80108954F925F926F927F928F929F92AF92BF92CF92DF921E
:20724000EF92FF920F931F93CF93DF9384E08093E9008091E80082FF57C2289884E690E067
:207260009093AB018093AA01AADF182F853481F48CE49DE19093AD018093AC0107B600FC4B
:20728000FDCFF999FECF81E180935700E89503C0843519F494DF8DE00DC28C34E1F38035F9
:2072A000D1F3843721F484E4A2DF80E003C2813611F489E5FFC18134B1F481DF182F7FDFE3
:2072C00090E0880F991FAA2797FDA095BA2F312F330F20E0442737FD4095542F822B932B68
:2072E000A42BB52BB8C1803711F483E5E3C1833549F4C0E0D1E089917ADF21E0C730D20714
:20730000D1F7D9C1863521F481E371DF80E3D2C1833731F487E86BDF85E969DF8EE1CAC149
:207320008536B9F4E0E0F0E093E085E090935700E89507B600FCFDCF80935700E89507B65D
:2073400000FCFDCFE058FF4FA0E7E030FA0771F7A2CF823739F4E1E0F0E089E08093570024
:207360008491A8C1863439F4E0E0F0E089E08093570084919FC18E3439F4E3E0F0E089E0E5
:2073800080935700849196C1813539F4E2E0F0E089E08093570084918DC1823631F489E521
:2073A00026DF80E024DF80E885C1823419F0873609F0E5C01092AD011092AC0100DF082FE8
:2073C000FEDEF82EFCDE682E8554823008F071C1902F80E0CF2DD0E0C82BD92B10926F00B3
:2073E000173609F04BC081E180935700E895DD24CC24C3943FC0E090AE01F090AF010091CC
:20740000B0011091B101B6E46B16D9F4ED2DF0E0EE29FF29E4918E2FEADEDD2081F082E08D
:2074200090E0A0E0B0E0E80EF91E0A1F1B1FE092AE01F092AF010093B0011093B101DC2470
:2074400018C0D801C701B695A7959795879559D5CEDE82E090E0A0E0B0E0E80EF91E0A1FF2
:207460001B1FE092AE01F092AF010093B0011093B1012197209709F0BECF7DC08090AE01F5
:207480009090AF01A090B001B090B10196E4691609F05DC083E0F40180935700E89507B63E
:2074A00000FCFDCF54C0F6E46F1661F5772031F1E090AE01F090AF010091B0011091B1019E
:2074C0007EDED82ECC24852D90E08C299D29F7010C0140925700E895112482E090E0A0E08B
:2074E000B0E0E80EF91E0A1F1B1FE092AE01F092AF010093B0011093B10102C060DE582E1A
:20750000742423C0E090AE01F090AF010091B0011091B10116950795F794E79450DE682FFA
:20752000C701F7D48091AE019091AF01A091B001B091B1010296A11DB11D8093AE01909349
:20754000AF01A093B001B093B101219704C05524772444244394209709F0A5CF96E46916B6
:2075600041F485E0F40180935700E89507B600FCFDCF8DE03CDE82E080936F009CC0833492
:2075800071F40091AE011091AF0119DE90E021E0F8010C0120935700E89511247CCE8336C8
:2075A00019F5E090AE01F090AF010091B0011091B10105DEF701E16090E021E00C0120938C
:2075C0005700E895112482E090E0A0E0B0E0E80EF91E0A1F1B1FE092AE01F092AF0100936A
:2075E000B0011093B10157CE8D3661F4E091AE01F091AF0185E080935700E89507B600FCF2
:20760000FDCF49CE823551F4E091AE01F091AF0105911491812FEBDD802F4CC0843421F5FE
:20762000E090AE01F090AF010091B0011091B10116950795F794E794C2DD682FC70169D4DE
:207640008091AE019091AF01A091B001B091B1010296A11DB11D8093AE019093AF01A093D8
:20766000B001B093B10117CE843609F5E090AE01F090AF010091B0011091B101D801C70142
:20768000B695A795979587953CD4B1DD82E090E0A0E0B0E0E80EF91E0A1F1B1FE092AE010A
:2076A000F092AF010093B0011093B10104C08B3111F08FE39CDD83E08093E9009091E8002B
:2076C0008091E8008E778093E80095FF04C010C08EB38823C9F08091E80080FFF9CF809193
:2076E000E8008E778093E80003C08EB3882361F08091E80080FFF9CF84E08093E9008091F1
:20770000E8008B778093E800DF91CF911F910F91FF90EF90DF90CF90BF90AF909F908F90AC
:207720007F906F905F904F9008959091B601892F8F77813249F58091B7018032A1F081328A
:2077400019F5913A09F58091E800877F8093E8008DE091E067E070E00BD28091E8008B770B
:207760008093E8000895913279F48091E800877F8093E8008DE091E067E070E05DD2809192
:20778000E8008E778093E800089582E061EC42E0B5D083E061E842E1B1D084E060E842E1EF
:2077A000ADC084B7877F84BF88E10FB6F89480936000109260000FBE20E880E090E00FB63F
:2077C000F89420936100809361000FBE81E085BF92E095BF3F9A209A559AE1E6F0E02083A1
:2077E000108247985D9A289A109289008AEF8093880090936F0083E080938100F0C0409116
:20780000000850910108109201081092000894B714BE88E10FB6F8948093600010926000D5
:207820000FBE292F30E0F901E270F07091FD18C090FF05C0859194918F5F9F4F81F423FFFF
:207840000FC08091090190910A014817590741F0E0E0F0E0859194918F5F9F4F09F042DC64
:20786000A0DF78941092AD011092AC010CC0DEDC36D38091AC019091AD0181549F4110F00D
:207880001092140141DC80911401882381F78091E00081608093E00025DC80E090E0089598
:2078A000FA01923049F0933061F09130F9F485E191E022E130E01EC087E291E02EE330E04D
:2078C00019C0882329F485E691E024E030E012C0813029F489E691E022E230E00BC0823006
:2078E00029F48DE891E028E130E004C080E090E020E030E091838083C90108958093E9004E
:207900008091EB0081608093EB001092ED006093EC004093ED008091EE00881F8827881F62
:2079200008958091B60188238CF403C08EB38823B1F08091E80082FFF9CF8091E8008B772A
:207940008093E80008958EB3882349F08091E80080FFF9CF8091E8008E778093E800089594
:20796000EF92FF920F931F9345D04CD008ED10E0F80180818F77808380818068808380819B
:207980008F7D808319BC1EBA1092B40180EEE82EF12CF70180818B7F8083F8018081816052
:2079A000808380E060E042E0A9DFE1EEF0E080818E7F8083E2EEF0E0808181608083808144
:2079C00088608083F70180818E7F8083F8018081806180831F910F91FF90EF900895E7ED06
:2079E000F0E08081816080838AE482BF81E08093B501B6CFE8EDF0E080818E7F808310921C
:207A0000E20008951092DA001092E10008951F920F920FB60F9211242F933F934F935F93F6
:207A20006F937F938F939F93AF93BF93EF93FF938091DA0080FF1BC08091D80080FF17C0B2
:207A40008091DA008E7F8093DA008091D90080FF0BC080E189BD82E189BD09B400FEFDCF36
:207A600081E08EBB3BD203C019BC1EBA37D28091E10080FF17C08091E20080FF13C0809138
:207A8000E2008E7F8093E2008091E20080618093E2008091D80080628093D80019BC85E049
:207AA0008EBB1CD28091E10084FF2CC08091E20084FF28C080E189BD82E189BD09B400FEC5
:207AC000FDCF8091D8008F7D8093D8008091E1008F7E8093E1008091E2008F7E8093E20012
:207AE0008091E20081608093E2008091B401882331F48091E30087FD02C081E001C084E067
:207B00008EBBECD18091E10083FF21C08091E20083FF1DC08091E100877F8093E10082E06A
:207B20008EBB1092B4018091E1008E7F8093E1008091E2008E7F8093E2008091E2008061E9
:207B40008093E20080E060E042E0D8DEC7D1FF91EF91BF91AF919F918F917F916F915F9130
:207B60004F913F912F910F900FBE0F901F9018959C014091BC015091BD014617570718F49D
:207B8000F90190E044C06115710511F0AB01F8CF8091E8008E778093E80040E050E0F0CF0F
:207BA0008EB3882309F444C0853009F443C08091E80083FF02C081E008958091E80082FD70
:207BC00031C08091E80080FF22C08091F3009091F200782F60E0292F30E0262B372B07C07A
:207BE00081918093F100415050402F5F3F4F4115510519F02830310598F390E02830310566
:207C000009F491E08091E8008E778093E8004115510531F6992321F605C08EB3882341F075
:207C2000853041F08091E80082FFF7CF80E0089582E0089583E008959C016115710529F47C
:207C40008091E8008B778093E800F90126C08EB3882391F1853091F18091E80083FF02C06C
:207C600081E008958091E80082FFF1CF06C08091F10081936150704059F02091F300809191
:207C8000F200322F20E090E0822B932B892B79F78091E8008B778093E80061157105B9F601
:207CA00005C08EB3882341F0853041F08091E80080FFF7CF80E0089582E0089583E00895C2
:207CC0000F931F93DF93CF9300D0CDB7DEB7E6EBF1E08091F100819381E0EE3BF807C9F792
:207CE00024DD8091E80083FFE4C08091B6019091B701953009F46DC0963040F4913081F1A7
:207D0000913070F0933009F0D4C02AC0983009F4A3C0993009F4B2C0963009F0CAC07CC023
:207D2000803809F4C6C0823809F0C3C08091BA0187708093E9008091EB001092E9002091DB
:207D4000E800277F2093E80090E025E0969587952A95E1F781708093F1001092F10087C0D8
:207D6000882319F0823009F0A4C08F71823009F0A0C08091B801882331F52091BA01277097
:207D800009F497C02093E9008091EB0080FF1BC0933021F48091EB00806213C08091EB0018
:207DA00080618093EB0081E090E002C0880F991F2A95E2F78093EA001092EA008091EB00E5
:207DC00088608093EB001092E9008091E800877F51C0882309F06DC01091B8011F770FB79B
:207DE000F8948091E800877F8093E8009ADD8091E80080FFFCCF8091E3008078812B809398
:207E0000E30080688093E300112311F482E001C083E08EBB0FBF4DC08058823008F049C033
:207E20008091B8019091B9016091BA01AE014F5F5F4F36DDBC01009709F43BC08091E8008E
:207E4000877F8093E80089819A8192DE8091E8008B778093E8002DC0803859F58091E800AA
:207E6000877F8093E8008091B4018093F1008091E8008E778093E80054DD1BC08823C9F4CA
:207E80009091B8019230A8F48091E800877F8093E8009093B40145DD8091B401882331F420
:207EA0008091E30087FD02C081E001C084E08EBB6CDC8091E80083FF0AC08091EB0080624E
:207EC0008093EB008091E800877F8093E8000F900F90CF91DF911F910F91089508951F9360
:207EE0008EB3882361F01091E9001092E9008091E80083FF01C0E4DE17701093E9001F916F
:207F00000895F999FECF92BD81BDF89A992780B50895262FF999FECF1FBA92BD81BD20BDBD
:207F20000FB6F894FA9AF99A0FBE01960895F894FFCF4341544552494E4100777700080031
:207F40000000000000080112011001020000084123360001000201000109023E00020100FF
:207F600080320904000001020201000524001001042402040524060001070582030800FF0C
:207F800009040100020A000000070504021000010705830210000104030904220341007216
:207FA000006400750069006E006F0020004C0065006F006E006100720064006F0000001836
:1A7FC00003410072006400750069006E006F0020004C004C004300000000D7
:00000001FF
